:020000040800F2
:10000000302A00204D02000853200008451800083F
:10001000512000086D050008F525000800000000CB
:10002000000000000000000000000000692100083E
:100030006F05000800000000552000086B21000833
:1000400067020008670200086702000867020008EC
:1000500067020008670200086702000867020008DC
:1000600067020008670200086702000867020008CC
:1000700067020008670200086702000867020008BC
:1000800067020008670200086702000867020008AC
:10009000670200086702000867020008670200089C
:1000A000670200086702000867020008670200088C
:1000B000670200086702000867020008670200087C
:1000C000670200086702000867020008670200086C
:1000D000670200086702000867020008670200085C
:1000E000670200086702000867020008670200084C
:1000F000670200086702000867020008670200083C
:10010000670200086702000867020008670200082B
:100110006702000867020008192200086702000849
:10012000670200086702000867020008670200080B
:1001300067020008670200086702000867020008FB
:1001400067020008670200086702000867020008EB
:1001500067020008670200086702000867020008DB
:1001600067020008670200086702000867020008CB
:10017000670200086702000867020008000000002C
:1001800067020008670200086702000867020008AB
:10019000670200086702000867020008670200089B
:1001A00067020008670200086702000800F002F812
:1001B00000F03CF80AA090E8000C82448344AAF1C5
:1001C0000107DA4501D100F031F8AFF2090EBAE8C3
:1001D0000F0013F0010F18BFFB1A43F0010318477B
:1001E000C4510000E4510000103A24BF78C878C11F
:1001F000FAD8520724BF30C830C144BF04680C602D
:10020000704700000023002400250026103A28BF74
:1002100078C1FBD8520728BF30C148BF0B60704778
:100220001FB502F07EFF1FBD10B510BD00F0CFF866
:100230001146FFF7F5FF02F021FA00F0EDF803B4E4
:10024000FFF7F2FF03BC00F0F5F800000948804713
:1002500009480047FEE7FEE7FEE7FEE7FEE7FEE7A8
:10026000FEE7FEE7FEE7FEE704480549054A064BC0
:100270007047000009220008AD010008302400206A
:10028000302A0020302600203026002053EA020CBD
:1002900000F069802DE9F04B4FF00006002B1FBFE6
:1002A000B3FA83F503FA05F424FA05F65E4012BFAB
:1002B0001643B2FA82F502FA05F4C5F120051EBF15
:1002C00022FA05FC44EA0C04203556EA044C4FEAB5
:1002D000144418BF641C4FF000084FF0000990420E
:1002E00071EB030C39D3002919BFB1FA81F701FA78
:1002F00007F6B0FA80F700FA07F6C7F120071EBF2D
:1003000020FA07FC46EA0C062037B6FBF4FCA7EB04
:100310000507103F07F01F0BCBF120060CFA0BFB73
:100320002CFA06F644BFB3460026202FA4BF5E4633
:100330004FF0000B5BEA060C08BF4FF0010B19EB06
:100340000B09ABFB027C48EB0608C01B06FB02CC8A
:100350000BFB03CC71EB0C01C1E70B460246414697
:100360004846BDE8F08B13B54FF000004FF0000198
:10037000AFF30080BDE81C4070474FF0000200B5AD
:10038000134694469646203922BFA0E80C50A0E8B8
:100390000C50B1F12001BFF4F7AF090728BFA0E866
:1003A0000C5048BF0CC05DF804EB890028BF40F832
:1003B000042B08BF704748BF20F8022B11F0804F74
:1003C00018BF00F8012B704770477047704775469B
:1003D00000F02CF8AE4605006946534620F00700B1
:1003E000854618B020B5FFF73FFFBDE820404FF02D
:1003F00000064FF000074FF000084FF0000B21F00F
:100400000701AC46ACE8C009ACE8C009ACE8C009DB
:10041000ACE8C0098D46704710B50446AFF30080C4
:100420002046BDE81040FFF70ABF000000487047B3
:10043000CC23002001491820ABBEFEE726000200B5
:1004400070470000464910B54A6822F440324A60BD
:100450004A6843681A434A6001684A6822F4807215
:100460004A6001684A68036942EA03224A600168F7
:100470004A6822F040724A6001684A6883681A43F9
:100480004A6001688A6822F400628A6001688A68AA
:10049000C3681A438A60816A6FF07062D142016852
:1004A0008A6822F070628A6001688A680CD0836A68
:1004B0001A438A6001688A6822F040528A600168A3
:1004C0008A68C36A1A4301E022F040528A600168D8
:1004D0008A6822F002028A6001688A68037E42EA22
:1004E00043028A6090F82010002901684A680FD002
:1004F00042F400624A6001684A6822F460424A603D
:1005000001684A68174C436A04EB43331A4301E01D
:1005100022F400624A600168CA6A22F47002CA6268
:100520000168CA6A838B104C04EB03531A43CA62F6
:1005300001688A6822F400728A6001688A6890F80B
:10054000303042EA43228A6001688A6822F480627D
:100550008A6001688A68406942EA8020886010BD2C
:100560000023014000E0FFFF0000F0FFFEE77047BE
:1005700072B6FEE710B5044800F018F9024800F022
:10058000B7F880B210BD00003C00002078B5002410
:10059000009490F83C20012A19D0012280F83C20D8
:1005A0000A6807230568092A13D9EE680A3A02EB9C
:1005B000420293409E43EE600B788A680A3B03EB4D
:1005C00043039A400368DD682A43DA6010E00220A2
:1005D00078BD2E6902EB420293409E432E610B7858
:1005E0008A6803EB43039A4003681D692A431A6132
:1005F0004A681F23072A13D205686E6B521E02EB4E
:10060000820293409E436E630A8893B20A79521E17
:1006100002EB820293400268556B2B43536327E041
:1006200005680D2A12D22E6BD21F02EB8202934074
:100630009E432E630B790A88DB1F92B203EB830380
:100640009A4003681D6B2A431A6311E0EE6A0D3A63
:1006500002EB820293409E43EE620B790A880D3BC7
:1006600092B203EB83039A400368DD6A2A43DA629D
:100670001B4B0568194A9D420AD10D68122D07D1FE
:10068000556825F400055560556845F480055560AA
:1006900005689D421DD1134D0B68AB4201D0112B53
:1006A00017D1536823F480035360536843F4000365
:1006B00053600968A9420CD10B490C4A0968B1FB87
:1006C000F2F101EB8101490000E0491E009100298F
:1006D000FBD180F83C40002078BD000000230140A1
:1006E00000200140120000103000002040420F00A6
:1006F0000068C06C704770B504004FF0000503D06F
:10070000206C002610B107E0012070BD204600F0EB
:100710001DF8666484F83C60206CC00610D4206C20
:1007200020F4885040F0020020642046FFF78AFE43
:100730006664206C20F0020040F00100206400E0BC
:10074000012584F83C60284670BD000010B586B0D5
:10075000044614216846FFF710FE114920688842BC
:100760001CD110480021026842F4807202600068C7
:1007700000F4807005900B481438026842F00402BF
:100780000260006800F0040005900420009003203F
:10079000CDE901016946044800F086F806B010BDB5
:1007A00000200140443802400008024018B50021F2
:1007B000009190F83C20012A07D0012280F83C20CB
:1007C00002689368DB0702D011E0022018BD93682D
:1007D00043F0010393602E4A2E4B1268B2FBF3F2F2
:1007E00002EB420200E0521E0092002AFBD1026896
:1007F0009368DB0742D0036C40F20164A34343F4E7
:100800008073036453685B0505D5036C23F40053C0
:1008100043F480530364036CDB0404D5436C23F07E
:100820000603436400E0416480F83C101A496FF00D
:100830002203136049680068CA06184906D0884236
:1008400024D1816811F0405F13D01FE08842F8D0B6
:10085000134A904203D1D1F80423D206F1D0114AB1
:10086000904213D1D1F8041301F01F011029E8D3ED
:100870000CE0816841F08041816007E0016C41F04B
:1008800010010164416C41F001014164002018BD78
:100890003000002040420F000023014000200140B2
:1008A00000210140002201402DE9F84FDFF8F8A1B6
:1008B0000022012403254FF00F090AF1040BAAF1CD
:1008C000040E00BF0B6804FA02F63340B34270D145
:1008D0000F7907F00307012F01D0022F16D1876887
:1008E0004FEA420805FA08FC27EA0C07D1F80CC0C9
:1008F0000CFA08FC4CEA070CC0F808C04768B7437C
:100900000E79C6F3001696403E4346600E79F643D4
:10091000B6070AD0C7684FEA420C05FA0CF6B7438F
:100920008E6806FA0CF63E43C6600E7906F00306A2
:10093000022E10D1D60800EB8608D8F820605707A1
:100940004FEAD76C09FA0CF7BE430F6907FA0CF7A8
:100950003743C8F8207006684FEA420C05FA0CF7D6
:10096000BE430F7907F0030707FA0CF73743076018
:100970004E6816F4403F1CD04C4E376847F4804711
:100980003760366822F0030706F480460096484E2A
:1009900007EB060CDCF8086897073F0F09FA07F821
:1009A00026EA0806DFF80C81404503D14FF0000825
:1009B00041E072E0DFF80081404502D14FF00108CC
:1009C00039E0DFF8F880404502D14FF0020832E00C
:1009D000DFF8EC80404502D14FF003082BE0DFF850
:1009E000E480404502D14FF0040824E0DFF8D880CD
:1009F000404502D14FF005081DE0DFF8D0804045AA
:100A000002D14FF0060816E0DFF8C480404502D15D
:100A10004FF007080FE0DFF8BC80404502D14FF0EF
:100A2000080808E0DFF8B080404502D14FF009081F
:100A300001E04FF00A0808FA07F848EA0608CCF87F
:100A40000888DAF800605746D1F804C09E435FEA90
:100A5000CC2C00D51E433E60DBF800605F46D1F829
:100A600004C09E435FEA8C2C00D51E433E60DEF836
:100A700000607746D1F804C09E435FEA8C3C00D505
:100A80001E433E60084F083F3E68D1F804C09E43B5
:100A90005FEACC3C00D51E433E60521C102AFFF496
:100AA00011AFBDE8F88F0000083C01404438024017
:100AB00000300140000002400004024000080240F3
:100AC000000C0240001002400014024000180240D6
:100AD000001C024000200240002402400AB1816153
:100AE00070470904FBE70000014880687047000078
:100AF0002400002002488168027811448160704718
:100B0000240000200B4810B5016841F40071016019
:100B1000016841F480610160016841F48071016005
:100B2000032000F06FF80F2000F006F800F024F822
:100B3000002010BD003C024070B50D4D04464FF43E
:100B40007A712878B1FBF0F00A490968B1FBF0F03E
:100B500000F06DFC48B9102C07D200222146501E2F
:100B600000F030F800206C6070BD012070BD000006
:100B700024000020300000200A4808B5016841F434
:100B800080410160006800F4804000900548001F2B
:100B9000016841F080510160006800F080500090D1
:100BA00008BD000044380240002809DB00F01F02A5
:100BB000012191404009800000F1E020C0F80011BF
:100BC00070470000F0B40E4B1B680C46C3F30223C1
:100BD000C3F10705042D00D90425191D072901D2E9
:100BE000002300E0DB1E012606FA05F1491E214024
:100BF00099409E40761E16403143F0BC01F0FBBC8C
:100C00000CED00E0064900F0070208684FF6FF030C
:100C1000184040EA0220034A104308607047000071
:100C20000CED00E00000FA052DE9F0470E46050046
:100C300065D0DFF81481D8F80000F7B200F00F009B
:100C4000B04207D288F80070D8F8000000F00F001A
:100C5000B04254D128683D4C810712D5400703D5D6
:100C6000206840F4E05020602878000703D5206811
:100C700040F4604020602068A96820F0F00008433C
:100C800020602878C0072DD03049686808390128CD
:100C900012D0022813D0032811D00968890700292F
:100CA0002DDA216821F0030101432160FFF71CFFC9
:100CB000814641F2883A0EE009688903EFE7096846
:100CC0008901ECE7FFF710FFA0EB0901514502D9BC
:100CD0000320BDE8F0872068696800F00C00B0EBE5
:100CE000810FEFD1D8F80010404601F00F01B1425A
:100CF00007D90770006800F00F00B04201D0012052
:100D0000E7E72878400705D52068E96820F4E05037
:100D1000084320602878000706D52068296920F458
:100D2000604040EAC100206000F038F82168084ABD
:100D3000C1F30311515CC8400649086006480068C9
:100D4000FFF7FAFE0020C4E7003C024008380240EA
:100D500036310008300000202800002004480549F2
:100D600000680968044AC1F38221515CC840704799
:100D70003000002008380240463100080448054988
:100D800000680968044AC1F34231515CC8407047A9
:100D9000300000200838024046310008154810B5E0
:100DA000006810F00C02144813D01449042A0FD024
:100DB000082A0ED10F4C241F2268236802F03F023C
:100DC0005B0207D52068C0F38810A0FB010106E094
:100DD000084610BD2168C1F38811A1FB0001002362
:100DE000FFF754FA2168C1F30141491C4900B0FBE7
:100DF000F1F010BD083802400024F40040787D0175
:100E00002DE9F84F04006ED02078DFF84C93C0072E
:100E1000A9F104054AD009F104000168C1F3810178
:100E2000012908D00068C0F3810002280AD1D9F84E
:100E30000000400206D52868800337D56068002886
:100E4000E1D033E06068B0F5803F10D0B0F5A02F5E
:100E5000286810D020F480302860286820F4802092
:100E600028606068A8B1FFF73FFE06460DE02868DD
:100E700040F48030F4E740F480202860F7E700BFBA
:100E8000FFF732FE801B642873D828688003F7D5EB
:100E90000CE0FFF729FE064605E000BFFFF724FE41
:100EA000801B6428F0D828688003F7D42078DFF806
:100EB000AC8280074FF0000A3ED5A748001D0168AC
:100EC00011F00C0F08D00068C0F3810002280BD18C
:100ED000D9F80000400207D42868800716D5E068DA
:100EE000012800D112E033E1E068B8B10120C8F870
:100EF0000000FFF7F9FD064605E000BFFFF7F4FD2F
:100F0000801B0228C0D828688007F7D52868216987
:100F100020F0F80040EAC10028600DE0C8F800A009
:100F2000FFF7E2FD064604E0FFF7DEFD801B022826
:100F30001FD828688007F7D42078000722D5864F6D
:100F400087486169703771B101210160FFF7CCFDFD
:100F5000064604E0FFF7C8FD801B022809D8386860
:100F60008007F7D50EE0C0F800A0FFF7BDFD0646EC
:100F700005E082E0FFF7B8FD801B02287DD83868C5
:100F80008007F7D42078400768D5DFF8CCB1002778
:100F90000BF13C0BDBF80000C0000BD4DBF80010B9
:100FA00041F08051CBF80010DBF80000012700F081
:100FB000805000906B4E3068C00510D4306840F40B
:100FC00080703060FFF790FD009005E0FFF78CFD2A
:100FD0000099401A022850D83068C005F6D55E4EF8
:100FE000A0686C3601280FD00528306810D020F09A
:100FF00001003060306820F004003060A068B8B1B3
:10100000FFF772FD00900FE0306840F00100F4E758
:1010100040F004003060F7E7FFF766FD0099411AE1
:1010200041F28830814266D830688007F4D50EE0FE
:10103000FFF75AFD009007E0FFF756FD0099411AAF
:1010400041F28830814256D830688007F4D42FB1FD
:10105000DBF8001021F08051CBF80010A069C8B374
:101060003D49091D0968C1F3810102294AD00228BE
:10107000504607D0C8F8600000E03CE0FFF734FDC0
:1010800004463BE04746C8F86000FFF72DFD0646E2
:1010900005E000BFFFF728FD801B02282BD8286839
:1010A0008001F7D4D4E907010843A16A2E4A490810
:1010B00002EB0141626A41EA8211084394F82C1064
:1010C00040EA0161C9F8001001203866FFF70CFD05
:1010D000044606E03EE000BFFFF706FD001B0228C5
:1010E00009D828688001F7D534E000BFFFF7FCFC81
:1010F000001B022802D90320BDE8F88F2868800170
:10110000F4D427E00128F7D0D9F80000E26900F410
:10111000800191421CD1226A00F03F01914217D117
:1011200047F6C071626A0140B1EB821F10D1A26A1A
:101130004FF0FF3300F4403103EB5202B1EB024FAA
:1011400006D194F82C1000F07060B0EB016F01D064
:101150000120D1E70020CFE70438024000004742D9
:10116000800E4742007000400000FFFF70B5040091
:1011700009D0606A002540B125616561A56294F8D7
:10118000510040B10CE0012070BD6068B0F5827F75
:10119000F4D0E561F2E784F85050204600F044F8BE
:1011A000022084F851002068016821F040010160AC
:1011B000A088218900F4827001F404410843A189C8
:1011C00001F400610843217C01F002010843217D04
:1011D00001F001010843218B01F400710843217FD4
:1011E00001F03801084394F8201001F08001084311
:1011F000218D01F40051084321680860A069042191
:1012000001EA104094F8241001F01001084321680D
:1012100048602068C16921F40061C16165650120F1
:1012200084F85100002070BDF0B587B00446142149
:101230006846FFF7A2F81A49206888422DD119485C
:10124000016841F480110160006800F4801005908D
:1012500014481438016841F020010160016801F070
:1012600020010591016841F08001016000680224BD
:1012700000F0800005904FF400700125032605273B
:101280008DE8F10069460848FFF70EFB40208DE825
:10129000F10069460548FFF707FB07B0F0BD000005
:1012A000005001404438024000140240001C02403B
:1012B0002DE9F84F044690F8500000271D461646C9
:1012C000894601280DD04FF0010B84F850B0FFF78C
:1012D0000BFC804694F85100BA46012804D002273E
:1012E00093E00220BDE8F88FB9F1000F73D0002E13
:1012F00071D0032084F85100C4F854A0C4F8309091
:10130000A686E686C4F838A0A4F83CA0A4F83EA0BF
:10131000C4F844A0C4F840A0A068B0F5004F09D1BB
:101320002068016821F0400101602068016841F4F3
:101330008041016020680168490603D4016841F0DA
:1013400040010160E068B0F5006F606803D030B321
:10135000012E24D041E008B1012E1CD1206B216860
:101360000088C86006E020688168890709D5216B7C
:101370000988C160206B801C2063E08E401EE086DF
:1013800009E0FFF7B1FBA0EB0800A84202D3681CFC
:1013900001D031E07DB3E08E0028E4D120E0206B65
:1013A00021680078087306E020688168890709D5FC
:1013B000216B09780173206B401C2063E08E401E76
:1013C000E0860AE0FFF790FBA0EB0800A84203D3F9
:1013D000681C02D010E017E06DB1E08E0028E3D168
:1013E00042462946204600F037FE08B120206065BD
:1013F000A06818B106E0FFE7032706E02068C1688F
:1014000080680090606D00B1012784F851B084F8C5
:1014100050A0384666E74FF0E0210428086903D061
:1014200020F004000861704740F00400FAE710B5AE
:10143000401EB0F1807F01D3012010BD4FF0E024A9
:1014400060610F21601701F0D6F80020A06107202D
:101450002061002010BD70477047000070B590F803
:101460003C20012A32D0012480F83C40022280F83E
:101470003D2003685A689D6822F070060A6832436E
:101480005A60134B02689A4214D0B2F1804F11D0C7
:10149000104B9A420ED0104B9A420BD00F4B9A42EF
:1014A00008D00F4B9A4205D00E4B9A4202D00E4BF9
:1014B0009A4204D1496825F080031943916080F86D
:1014C0003D40002180F83C10084670BD022070BDF0
:1014D000000001400004004000080040000C0040F3
:1014E00000040140004001400018004010B5040015
:1014F00003D094F83D0010B107E0012010BD00209A
:1015000084F83C00204600F01FF8022084F83D00DB
:10151000211D206800F084FF012084F8460084F833
:101520003E0084F83F0084F8400084F8410084F8CD
:10153000420084F8430084F8440084F8450084F8AD
:101540003D00002010BD000008B500680B4988422E
:1015500012D10B48016841F01001016000680022BF
:1015600000F01000009011463620FFF72BFBBDE87D
:1015700008403620FFF718BB08BD000000100040EF
:101580004038024090F83D10012901D001207047F9
:10159000022180F83D100168CA6842F00102CA6069
:1015A00000681149884214D0B0F1804F11D00F4922
:1015B00088420ED00E4988420BD00E49884208D08E
:1015C0000D49884205D00D49884202D00C49884215
:1015D00004D1816801F00701062903D0016841F0B8
:1015E000010101600020704700000140000400403C
:1015F00000080040000C0040000401400040014091
:1016000000180040704770B50446006801694FF04B
:101610000005C943890715D4C168C943890711D496
:10162000E91E01610120207720688069800720463B
:1016300002D0FFF7E7FF04E000F098F8204600F042
:1016400096F8257720680169C943490717D4C1680E
:10165000C943490713D46FF00401016102202077C8
:101660002068806910F4407F204602D0FFF7CAFF4F
:1016700004E000F07BF8204600F079F82577206838
:101680000169C943090716D4C168C943090712D4BF
:101690006FF008010161042020772068C06980078D
:1016A000204602D0FFF7AEFF04E000F05FF82046CE
:1016B00000F05DF8257720680169C943C90617D491
:1016C000C168C943C90613D46FF010010161082035
:1016D00020772068C06910F4407F204602D0FFF7D1
:1016E00091FF04E000F042F8204600F040F8257732
:1016F00020680169C943C90708D1C168C943C9073E
:1017000004D1891E0161204600F032F82068016989
:10171000C943090609D4C168C943090605D46FF055
:10172000800101612046FFF796FE20680169C943E8
:10173000490609D4C168C943490605D46FF0400180
:101740000161204600F015F820680169C943890647
:101750000BD4C168C943890607D46FF02001016129
:101760002046BDE87040FFF777BE70BD70477047F8
:101770007047704770B5040004D094F83D00002510
:1017800010B106E0012070BD84F83C50204600F006
:1017900023F8242084F83D002068C16821F400511A
:1017A000C160204600F0A0FE2068016921F490414C
:1017B00001612068416921F02A0141612068C16806
:1017C00041F40051C1602564202084F83D0084F874
:1017D0003E00002070BD000010B586B00446142104
:1017E0006846FEF7CAFD14492068884221D1134893
:1017F0000021026842F010020260006800F0100050
:1018000005900E481438026842F001020260006838
:1018100000F0010005904FF4C06000900220CDE977
:101820000101032003900720049069460448FFF754
:101830003BF806B010BD00000010014044380240E3
:1018400000000240FEE7000070B504462DED048B59
:10185000B0EE608A30EE480A10EE100A01F0F0FB9C
:101860009FED2E1B53EC112B01F0F6F941EC190BF7
:1018700018EE100A01F0E4FB53EC192B00F094FF72
:1018800000F060FF00EE100A0022114640F69803B7
:1018900004EB8100D0ED000AF4EEC00AF1EE10FA7C
:1018A00000D80A46F4EEC00AF1EE10FA03DC491C37
:1018B00089B29942ECD9501C80B202F132010FE09A
:1018C00004EB8105D5ED000AF4EEC00AF1EE10FA42
:1018D00000D80846F4EEC00AF1EE10FA03DC491C09
:1018E00089B29942ECD9801A01F08BF99FED0D1B5A
:1018F00053EC112B01F0B0F941EC100B53EC102B11
:101900009FED0A0B51EC100B00F0F6FF00F01AFFF0
:10191000BDEC048B00EE100A70BD0000333333338E
:101920003333E33FFCA9F1D24D62503F0000000089
:101930000000F03F2DE9F04104461D4616460F46D3
:101940002A2000F073FA204600F066FA304600F0D4
:1019500063FA2B2000F06AFA384600F05DFA284658
:1019600000F05AFABDE8F0412C2000F05FBA2DE9F2
:10197000FE4F161ACDE900104FF000085D1A4746D9
:101980004FF0FF30002E02DD4FF0010102E003D1E5
:101990004FF000018B4602E08346C6F10006002DA1
:1019A00002DD4FF0010002E003D14FF0000082465B
:1019B00002E08246C5F10005AE4201DD344600E09A
:1019C0002C46601C4FF00009029019E000980C9A18
:1019D00081B2019880B200F018F8B0442F44A045BD
:1019E00004DD0198A8EB040858440190A74203DDE8
:1019F00000983F1B5044009009F101001FFA80F944
:101A000002998945E2DBBDE8FE8F10B514460B460E
:101A10000246FFF78FFF2046BDE8104000F0FCB9FA
:101A20002DE9F04780461F46581E83B21646501EC9
:101A300082B20C464046DDF82090FFF77BFF0AE0BB
:101A4000454604E0484600F0E7F96D1CADB2B542EA
:101A5000F8D3641CA4B2BC42F2D3BDE8F087000006
:101A600070B5684D4FF40054002221462846FFF718
:101A700035F84FF4C87000F0D9FD01222146284600
:101A8000FFF72CF8C82000F0D1FD642000F0CEFD57
:101A9000112000F0CBF9782000F0C8FD362000F0CE
:101AA000C5F9002000F0D6F93A2000F0BFF9052072
:101AB00000F0D0F9B22000F0B9F90C2000F0CAF91A
:101AC0000C2000F0C7F9002000F0C4F9332000F02A
:101AD000C1F9332000F0BEF9B72000F0A7F9352096
:101AE00000F0B8F9BB2000F0A1F9192000F0B2F91C
:101AF000C02000F09BF92C2000F0ACF9C22000F0CF
:101B000095F9012000F0A6F9C32000F08FF912200A
:101B100000F0A0F9C42000F089F9202000F09AF923
:101B2000C62000F083F90F2000F094F9D02000F0D7
:101B30007DF9A42000F08EF9A12000F08BF9E020BF
:101B400000F074F9D02000F085F9042000F082F94B
:101B50000D2000F07FF9112000F07CF9132000F037
:101B600079F92B2000F076F93F2000F073F954202A
:101B700000F070F94C2000F06DF9182000F06AF9BF
:101B80000D2000F067F90B2000F064F91F2000F031
:101B900061F9232000F05EF9E12000F047F9D02040
:101BA00000F058F9042000F055F90C2000F052F92B
:101BB000112000F04FF9132000F04CF92C2000F018
:101BC00049F93F2000F046F9442000F043F9512044
:101BD00000F040F92F2000F03DF91F2000F03AF905
:101BE0001F2000F037F9202000F034F9232000F006
:101BF00031F9212000F01AF9BDE87040292000F0E9
:101C000015B90000001C02402DE9FF4F81B00446C9
:101C1000DDE90F7B4FEA570800904FEAD80000FB40
:101C200007FA203AD0B20390029802993844401E35
:101C300083B204EB0800401E82B22046FFF77AFE12
:101C4000002637E0102F24D0202F35D11C490398CF
:101C500001EB80105FF0000510F80690BBF1000F5B
:101C60004FF0010000FA05F000EA090016D020B19B
:101C70002046049A0299FFF7C8FE641C0098A4B29B
:101C8000211A414510D10298009C401C80B202905C
:101C90000EE00C49039801EB0010DBE708B1049853
:101CA00000E00E9800F0B8F86D1CEDB2082DD5D309
:101CB000761CB6B25645C5D305B0BDE8F08F00001E
:101CC0003E3700084E3100082DE9FF4F83462DEDC9
:101CD000020B83B0DFED210A139F154620EE200A88
:101CE0007E080024A246BCEEC00A10EE100A1FFABD
:101CF00080F92DE0281B401EC1B20A2000F01AFD19
:101D0000B9FBF0F00A21B0FBF1F201FB1208A81EAA
:101D100084420ED1129A00FB06B08DE8840480B292
:101D20002E22089B0699FFF76FFF641C6D1CE4B21E
:101D3000EDB212988DE8810408F13000C2B204FBC4
:101D400006B080B2089B0699FFF75EFF641CE4B200
:101D5000AC42CFD309B0BDE8F08F00000000C8420C
:101D60002DE9FF4F83B00026DDE911B81D468246FC
:101D70004FEA58073446B1462CE0281B401EC1B23A
:101D80000A2000F0D7FC0599B1FBF0F00A21B0FB66
:101D9000F1F201FB120026B9691E8C4201DA58B13A
:101DA00001263030C2B204FB07A0CDF800B0CDE967
:101DB000018980B2109B08E0CDF800B004FB07A0B9
:101DC000CDE90189109B80B220220499FFF71CFF06
:101DD000641CE4B2AC42D0D307B0BDE8F08F2DE96B
:101DE000FE4F9946DDE90D6714468A460546DDF843
:101DF00030800CE0CDF800804B4651462846CDE9B6
:101E00000167FFF701FF05EB560085B2641C2278DD
:101E1000002AEFD1BDE8FE8F10B50446000A00F09D
:101E200019F8E0B2BDE8104000F014B870B5084CE5
:101E30000546002280212046FEF750FE284600F08D
:101E400009F82046BDE8704001228021FEF746BE19
:101E5000001C024001B504480223012269460068C3
:101E6000FFF726FA08BD0000340000207FB50024EB
:101E700015480094019402941249039401604FF4B0
:101E80008031C0E901140461047680F820400F49D4
:101E9000C0E90A140125C561C46080F8304045617D
:101EA000FEF729FC08B1FEF763FB0C20CDE9000525
:101EB000694602940448FEF769FB002801D0FEF74A
:101EC00057FB7FBD002001403C0000200100000FB7
:101ED000F0B587B014216846FEF74FFA2848002570
:101EE000016841F020010160016801F020010591C5
:101EF000016841F080010160016801F080010591F5
:101F0000016841F004010160016801F004010591DC
:101F1000016841F001010160016801F001010591D2
:101F2000016841F0020101600068164E00F00200F5
:101F30000590012280213046FEF7D0FD00224FF4AB
:101F400000513046FEF7CAFD0F4F002240213846AF
:101F5000FEF7C4FD4FF402500124CDE90004032034
:101F6000CDE9024069463046FEF79EFC40208DE8F0
:101F70003100694638460395FEF796FC07B0F0BD80
:101F800030380240001C024000040240104810B5E6
:101F90000E4901604FF48271416000218160C1608F
:101FA0004FF400720161C0E905120822C0E907215F
:101FB000416281620A21C162FFF7D8F8002803D08C
:101FC000BDE81040FEF7D4BA10BD0000005001403B
:101FD000840000201CB500240E4800940C49019494
:101FE000C0E900144CF25031C0E902418021816106
:101FF000FFF77CFA08B1FEF7BBFA00946946054882
:102000000194FFF72BFA002801D0FEF7B1FA1CBDAE
:1020100000100040DC0000200C4810B50A490160A7
:102020004FF416514160002181600822C160C0E96F
:1020300004128161C161FFF79DFB002803D0BDE858
:102040001040FEF795BA10BD001001402401002099
:10205000FEE7FEE77047000038B504461248134B10
:102060000068B0FBF3F04FF47A7358430090606857
:10207000B0F5827F0DD10B460092002280212046D0
:1020800000F016F870B1606D40F02000606503202C
:1020900038BD009830B1401E009020688068C04371
:1020A0000006F6D5002038BD3000002000366E0155
:1020B0002DE9F8431E46914688460446089DFEF7E2
:1020C00013FD401B351AFEF70FFD07462548006833
:1020D000C0F3CB30684338E0701C37D0FEF704FD06
:1020E000C01BA84203D215B1009860B32CE0206851
:1020F000416821F0E00141606068B0F5827F0BD15A
:10210000A068B0F5004F02D0B0F5806F04D1206810
:10211000016821F040010160A06AB0F5005F09D1BB
:102120002068016821F4005101602068016841F4D1
:1021300000510160012084F85100002084F8500013
:102140000320BDE8F8830025401E009020688168C8
:1021500038EA010004D000214945BDD10020F0E754
:102160000121F9E7300000207047FEF7C3BC0000F2
:1021700030B593B030216846FEF7FFF814210CA863
:10218000FEF7FBF81E480025016841F08051016010
:10219000006800F0805011901A48016821F4404115
:1021A00041F4804101600068022400F44040119035
:1021B00001200090000401908001CDE906400C2030
:1021C00008906020CDE9090404200B906846FEF7D2
:1021D00017FE08B172B6FEE70CA90F2081E83100A6
:1021E0004FF4A0500F904FF48050109003210CA892
:1021F000FEF71AFD002801D072B6FEE713B030BD1D
:1022000040380240007000400248016841F470010B
:102210000160704788ED00E0F0B570482DED068B49
:1022200083B0FFF7F0F9FEF7A5F900F001FD9FED8F
:102230006C8B53EC182B00F00FFD9FED6B1B53ECD8
:10224000112B00F009FD00F07DFA694C694E206108
:10225000218846F8210094ED029A84ED039A00F05B
:10226000EFFE53EC182B00F047FB9FED631B53EC84
:10227000112B00F0F1FC9FED621B53EC112B00F0D1
:10228000E9FD00F05FFA08EE900A5F49C4ED028AAA
:1022900094ED018A18EE100A9FED5CAB88421EDBBC
:1022A00018EE100A00F0CCFE53EC1A2B00F0DEFD05
:1022B00000F07AFCBCEEE80A4FF47841009110EE91
:1022C000101ABCEEC80A80B28BB210EE101ABCEE27
:1022D000C90A8AB210EE101A89B2FFF748FB60688B
:1022E00000F0AEFE53EC1A2B00F05EFA00F02AFA72
:1022F00060602088401C80B2A0F500612080983981
:1023000068D1002565804FF4FA676088D4ED050A2E
:1023100006EB800090ED000AB4EEE00AF1EE10FA50
:1023200001DD84ED050AD4ED060AB4EEE00AF1EE13
:1023300010FA01D284ED060A2E48D4ED060A94ED77
:10234000050AFFF781FA84ED070A6088401C80B215
:102350006080B842D9D91027DFED2E0A4FF6FF76FC
:10236000002320EE200A0322192184ED080ACDE97A
:10237000006794ED050A0520FFF7A6FCCDE900678C
:102380000023032294ED060A19215520FFF79CFC37
:102390008DE8E00094ED080A03231921BCEEC00A81
:1023A00010EE100A82B29120FFF7DAFC9FED1A0AB4
:1023B000E82384ED050A9FED190A1A4684ED060A02
:1023C0002580B2EE040A84ED010A3A210820009625
:1023D000FFF726FB03B0BDEC068BF0BDDC00002050
:1023E0006666666666660A40000000000000303FD0
:1023F0000000002068010020000000000000644090
:102400000000000000C06C40000030419A9999998A
:102410009999B93F000070420000000033335340E7
:10242000F0B50268254C264D264E274F274B4FF01E
:10243000804CA04209D0604507D0A84205D0B042E8
:1024400003D0B84201D0984204D122F0700E4A68FD
:1024500042EA0E02A0421BD0604519D0A84217D014
:10246000B04215D0B84213D0984211D0184DA842AE
:102470000ED0184DA8420BD0174DA84208D0174DCA
:10248000A84205D0164DA84202D0164DA84203D14D
:1024900022F44075CA682A434D6922F080022A431B
:1024A00002608A68C2620A688262A04201D09842D1
:1024B00001D10969016301214161F0BD00000140C2
:1024C0000004004000080040000C004000040140EF
:1024D0000040014000440140004801400018004015
:1024E000001C00400020004070B5044600680169EF
:1024F000E26821F44051114301612169A068E26959
:1025000008436169114308432168CA6849F20C63B2
:102510009A430243CA6020684169A26921F440716C
:102520001143416131492068884202D030498842D4
:1025300002D1FEF723FC01E0FEF710FCE269002364
:10254000192164253226B2F5004F626828D0A0FB1D
:102550000101930F9200FDF799FE0146B0FBF5F0E3
:102560006FF01802504301EB800006EB0010B0FB47
:10257000F5F000F0F002B1FBF5F002EB0012B1FB58
:10258000F5F06FF01803584301EB800006EB0010E4
:10259000B0FBF5F000F00F0021681044886070BDBA
:1025A000A0FB010192185B41FDF770FE0146B0FBF4
:1025B000F5F00201B1FBF5F06FF01803584301EBA1
:1025C000800006EBC000B0FBF5F000F0F80002EB75
:1025D0004002B1FBF5F0584301EB800006EBC00070
:1025E000B0FBF5F000F00700D6E700000010014056
:1025F00000140140FEE70907090E002804DB00F182
:10260000E02080F80014704700F00F0000F1E02097
:1026100080F8141D7047000010B504460420FEF732
:10262000FAFE0148046010BD3800002070B5054670
:1026300000244FF47A7603E0304600F005F8641C7D
:10264000AC42F9D370BD000070B54FF0E024002219
:1026500065690949A36909684843A1699942FCD0A1
:1026600002D2A3EB010302E0A5EB010633441A44B6
:102670000B468242F1D370BD380000200EB5FEF744
:1026800041FAFFF775FDFFF723FCFFF77FFCFFF72B
:10269000EDFBFFF79FFCFFF7BFFCB420FFF7BCFF8B
:1026A000FFF7DEF94FF6FF75F02300211A460846C2
:1026B0000095FFF7B5F900240522EB2341211046D0
:1026C0000094FFF754F9EB23E62219460520009405
:1026D000FFF74DF910260095CDE90164052100238F
:1026E0000CA20846FFF77BFB0095CDE901640023AF
:1026F0000AA205215520FFF772FB0095CDE9016480
:10270000002308A205219120FFF769FB0848FEF786
:1027100039FFFEE74D41583A000000004D494E3A5E
:1027200000000000686561727420726174653A008F
:10273000DC0000200246012000E05043491EC9B2DF
:10274000FBD2704721F00042A2F16052B2F5801F27
:1027500001F0004328BFD2F17F6C0BD95FEA001C67
:1027600043EAC20242EB507018BF704728BF20F006
:1027700001007047B2F5801FBCBF184670474FEA92
:10278000410C1CF5001F02D2084600F0CFBC70B50A
:1027900000F00CFB00000089FFF7F6BF4FF000408F
:1027A000A0F580007047000010B591EA030F48BF04
:1027B00083F0004300F16283841A71EB030C05D2AD
:1027C000121943EB0C03001B61EB0C01DFF824E151
:1027D0004FEA1154A4EB135C1EEA430F18BF9EEAA4
:1027E000445F73D023EA0E03DCF1200E21EA04518A
:1027F00043F4801332D322FA0CFE10EB0E0023FABE
:102800000CFE41EB0E01CCF1200E03FA0EFE10EB94
:102810000E0051F10001B1F5801FCCF1200E32D233
:1028200001EB045112FA0EF2BDE8104058BF704798
:10283000401C38BF5FEA420218BF7047002814BF2F
:1028400020F0010041F100014FEA410313F5001FA0
:1028500038BF7047A1F1C04100F0F6BA012A43EB3E
:102860000302ACF1200CDCF11F0E32BF4FF0000E62
:1028700023FA0CF310EB030041EB0451B4EB115FAE
:10288000D0D0A1EB045101F5801149085FEA300076
:1028900001EB04510ED350F1000038BF12FA0EFEC6
:1028A00008D1BDE81040C9E7401C38BF5FEA4202CA
:1028B000CAD1C3E7BDE810404FEA410313F5001F3A
:1028C00038BF7047A1F1C04100F0BEBA9EEA445F34
:1028D00008D011EA5E0FBDE8104004BF01F00041CE
:1028E00000207047BDE8104070B500F05FFA00BFEF
:1028F00064FBBE3E0000E0FF2DE9C04130B4DFF8CC
:10290000A0C23CEA111418BF3CEA131400F0EC809A
:1029100081EA03051CEA111444EAD57418BF1CEAC5
:10292000131500F0C780A4EB05044FF0004545EAFD
:10293000C12145EAC32341EA505143EA525304F10D
:102940007F74994204F500344FEAC0204FEAC22256
:1029500008BF904200F09C804FEA13650FF24016CA
:10296000765D4FEA134506FB05F7C7F1807706FB56
:1029700007F74FEAD737A7FB03687642C8F58038D8
:10298000A7FB06CE38BFA8F1010807FB08E64FF009
:10299000000EA6FB028CE6FB03CEDCF1000CCEF1B0
:1029A000004E38BFAEF1010EA6FB0C584FF00007E9
:1029B0004FF00005E6FB0E87A1FB08C6A0FB07CE83
:1029C00016EB0E0645F10005E1FB076515F1E04E3B
:1029D0007EBFA4F580345FEA46066D4116F180079C
:1029E00045F100054FEA17274FEA066647EA0567F3
:1029F000A6F1DE46B6F1805F4FEA15251FD93846AD
:102A000024F0010C05EBC471BCF1FE6F01EB0C115D
:102A100002D8F0BCBDE8008124425CBF01F5801EF5
:102A20009EEAC47F02D4F0BCBDE80081244238D4C1
:102A3000F0BCA1F1C041BDE8004100F005BA4FEA89
:102A4000D22242EA43524FEAD323A7FB02864FEA3F
:102A5000D02040EA415007FB03661EEA0E0F4FEA02
:102A6000D12105FB026658BFA6EB0056B6EB005617
:102A70004FEA520E4EEAC37E18EB0E0E56EB530E83
:102A8000BDD518EB02085E417F1C55F10005B6E785
:102A90004FF480154FF000074FF000064FF000088C
:102AA000ADE7F0BC4FF0000001F1C04101F0004182
:102AB000BDE8008111EA0C1F0CEA131500D00CE0F0
:102AC00013EA0C1F00F025804FF00000F0BC81EAF3
:102AD000030101F00041BDE80081F0BCBDE8004108
:102AE00081EA030100F0B0B9F0BCBDE8004170B567
:102AF00000F05CF9097EFC3E00F007B881EA0301B2
:102B00004FF0000001F00041704781EA030100F03E
:102B10009BB9F0BCBDE800414FF00000214970476F
:102B2000FFFDFBF9F7F5F4F2F0EEEDEBE9E8E6E492
:102B3000E3E1E0DEDDDBDAD8D7D5D4D3D1D0CFCD19
:102B4000CCCBCAC8C7C6C5C4C2C1C0BFBEBDBCBB52
:102B5000BAB9B8B7B6B5B4B3B2B1B0AFAEADACAB4D
:102B6000AAA9A8A8A7A6A5A4A3A3A2A1A09F9F9E27
:102B70009D9C9C9B9A9999989797969595949393D9
:102B8000929191908F8F8E8E8D8C8C8B8B8A898970
:102B900088888787868585848483838282818180F3
:102BA0000000FF070000F87F4FEA1153A3F5806390
:102BB000D3F11E03A8BFD3F1200C08DB4FF0004275
:102BC00042EAC12252EA505232FA03F070470942F7
:102BD0000BD4102BC4BF0020704703F5787CBCF1E8
:102BE000FF3F05D04FF0FF3070474FF000007047B7
:102BF00070B500F0DBF800BF4992248000207047D8
:102C0000F0E710F0004248BF4042B0FA80F310FAFB
:102C100003F10AD0C3F11D0303F580634FEA41506D
:102C200002EB035202EBD12170474FF000007047D6
:102C3000B0FA80F310FA03F10AD0C3F11D0303F5D3
:102C400080634FEA41504FEA035202EBD1217047B3
:102C50004FF0000070470000DFF848C170B51CEA73
:102C6000111E1EBF1CEA13159EEA0C0F95EA0C0FED
:102C700000F06F8081EA030423EA4C134EEAD47E0D
:102C800021EA4C1141F4801143F48013AE44A1FBBE
:102C9000024CA0FB0365AEF17F7E361955EB0C05A7
:102CA000A1FB034C4CF10003A0FB021C16EB0C062D
:102CB000654153F10003094218BF46F0010613F4C1
:102CC000007F0BD14FEA03314FEA0530340341EA6C
:102CD000155140EA16506FF003020AE04FEAC32193
:102CE0004FEAC520F40241EA555140EA56506FF0D0
:102CF000020202EB2E4201EB025585EACE710AD0A8
:102D00005FEA440C18BF24F0004450F1000041F188
:102D1000000120EAD47040F2FE7C624500D270BD12
:102D2000A84214BF4FF080444FF04044002E08BF2B
:102D30000024BEF1806FA8BFA1F1C041BDE8704082
:102D400080F282804FF0000001F1C04101F00041AB
:102D500070479EEA0C0F0CEA131518BF95EA0C0F8A
:102D600006D04FF0000081EA030E0EF0004170BD66
:102D700000F01CF88900013E00F007B800F009B827
:102D80004FEA430C5FEA5C5C08D081EA030100F083
:102D90005BB84FEA410C5FEA5C5CF6D14FF0000093
:102DA000014970470000FF070000F87F0EF1020E96
:102DB0002EF0030E5EF8046B364205D4012A43EB75
:102DC000030515F5001F12D8012841EB010C1CF575
:102DD000001F0CD80ED14FEAD17C15F5001F0CEB6B
:102DE0004C0C0CF1020C08BF4CEBD37C04E04FF010
:102DF000080C01E04FEAD37C0CEB4C0526FA05F6F3
:102E000006F00706B6F1040C06D20EEB860CBDE800
:102E100070404CF0010C6047DFE80CF0090B020237
:102E20004FF000414FF00000A1F5002170BD1946A0
:102E30001046012851EB010418BFD4F5001484BFDB
:102E4000002001F0004170BD0808A0F500114FEA14
:102E50003101704791EA030F10B581F000413FF551
:102E6000ABAC83F0004300F009B8000010B591EA64
:102E7000030F48BF83F000433FF59EAC841A71EB0B
:102E8000030C07D212198CF0004C43EB0C03001B0F
:102E900061EB0C01DFF8A4E14FEA1154A4EB135CE1
:102EA0001EEA430F18BF9EEA445F00F0B08023EA99
:102EB0006E03524221EA0451C3EB6E0338BF5B1E1E
:102EC000DCF1200E25D322FA0CFE10EB0E0043FAA3
:102ED0000CFE41EB0E01CCF1200E03FA0EFE10EBBE
:102EE0000E0051F10001CCF1200E29D412FA0EF29D
:102EF00001EB0451BDE8104058BF7047401C1CBF97
:102F0000B2F1004F704700280CBF491C20F00100AF
:102F1000704712EB020E43EB030218BF4FF0010E95
:102F20004EEA4202ACF1200CDCF11E0E54D943FAF9
:102F30000CFE10EB0E0051F1FF31CCF11E0ED5D579
:102F40000EF1010E12FA0EFE404141EB010101EBC0
:102F5000445C5FEA5C5C10D910EBDE7001EB04515D
:102F600038BFBEF1004FBDE8104018BF70470028C1
:102F70000CBF491C20F00100704730D24FEAD42C1E
:102F800011F5001124F400641BD0B1FA81F20B3A60
:102F9000A41AA41ED2F12003914030FA03F319437E
:102FA000904001EBCC71002C01EB0451BDE81040C6
:102FB000A8BF704701F1C0414FF0000001F000418F
:102FC0007047B0FA80F310FA03F100D110BDE41A93
:102FD000173C4805C90AE4E701EB045110BD49104C
:102FE00001EB0451BDE810404FEA300002E04FF021
:102FF000000170474A0008BF0042F8D0B2F5001F38
:1030000028BF704701F000414FF0000070479EEA72
:10301000445F07D011EA5E0FBDE8104004BF0021F5
:1030200000207047BDE8104070B5FFF7BFFE00BF3D
:1030300040DFF63E83F00041104670470000E0FF9D
:1030400043004FEAD30C4FEA3C0C43401FBF4007FC
:103050000CF1605113F0FE4F70471CF0006F03D16C
:1030600000200CF0004170470CF0004343EA507020
:1030700010B540EACC0000F00EF800BF000000924E
:103080004FEA0001FFF7E0BE4FF000414FF00000B3
:10309000A1F5002170470EF1020E2EF0030E5EF82E
:1030A000044B244204D44FEA4102B2F17F4F11D8BD
:1030B0004FEA4003B3F17F4F0CD80ED14FEAD07CDA
:1030C000B2F17F4F0CEB4C0C0CF1020C08BF4CEB37
:1030D000D17C04E04FF0080C01E04FEAD17C0CEB0E
:1030E0004C0324FA03F404F00704B4F1040C06D2F0
:1030F0000EEB840CBDE810404CF0010C6047DFE89B
:103100000CF0070802024FF00040A0F5800010BD4F
:103110000846420018BFD2F1807288BF00F000401C
:1031200010BD4FF04070E1EE100A7047FF2141EAF8
:10313000D050C005704700000000000000000102F0
:103140000304060708090000000001020304000050
:10315000000000000000000000000000000000006F
:1031600000080808080808080000181800000048AF
:103170006C241200000000000000000000000000AD
:10318000002424247F1212127F1212120000000069
:10319000081C2A2A0A0C1828282A2A1C08080000B9
:1031A0000022251515152A585454542200000000F9
:1031B000000C1212120A76252911916E00000006E9
:1031C00006040300000000000000000000000040B2
:1031D00020101008080808080810102040000002FD
:1031E0000408081010101010100808040200000055
:1031F000000008086B1C1C6B0808000000000000A1
:103200000000080808087F080808080000000000FF
:10321000000000000000000000000606040300009B
:10322000000000000000FE000000000000000000A0
:103230000000000000000000000006060000000082
:103240008040402020101008080404020200000002
:103250000018244242424242424224180000000028
:1032600000080E08080808080808083E00000000CA
:10327000003C4242422020100804427E0000000030
:10328000003C4242201820404042221C0000000026
:1032900000203028242422227E20207800000000F4
:1032A000007E0202021A26404042221C000000005A
:1032B00000382402021A264242422418000000006C
:1032C000007E2222101008080808080800000000EC
:1032D000003C4242422418244242423C000000008A
:1032E00000182442424264584040241C0000000060
:1032F000000000001818000000001818000000006E
:1033000000000000000800000000000808040000A1
:1033100000402010080402040810204000000000B3
:10332000000000007F0000007F000000000000009F
:1033300000020408102040201008040200000000D1
:10334000003C4242464020101000181800000000C7
:10335000001C225A555555552D42221C00000000D4
:10336000000808181414243C224242E70000000020
:10337000001F2222221E22424242221F0000000081
:10338000007C4242010101010142221C00000000B8
:10339000001F2242424242424242221F00000000DD
:1033A000003F4212121E12120242423F0000000071
:1033B000003F4212121E1212020202070000000019
:1033C000003C2222010101712122221C0000000088
:1033D00000E7424242427E42424242E70000000091
:1033E000003E0808080808080808083E0000000019
:1033F000007C10101010101010101010110F000091
:10340000007722120A0E0A12122222770000000010
:1034100000070202020202020202427F00000000D4
:103420000077363636362A2A2A2A2A6B0000000010
:1034300000E346464A4A5252526262470000000088
:10344000001C2241414141414141221C0000000039
:10345000003F424242423E020202020700000000D8
:10346000001C2241414141414D53321C600000008B
:10347000003F4242423E1212222242C70000000098
:10348000007C4242020418204042423E00000000FC
:10349000007F4908080808080808081C0000000008
:1034A00000E74242424242424242423C00000000A7
:1034B00000E74242222424141418080800000000E7
:1034C000006B494949495555362222220000000027
:1034D00000E7422424181818242442E700000000C2
:1034E00000772222141408080808081C00000000B5
:1034F000007E2120101008040442423F00000078A2
:1035000008080808080808080808080878000000E3
:103510000202040408080810102020204040001E69
:103520001010101010101010101010101E00003885
:103530004400000000000000000000000000000047
:1035400000000000000000000000000000FF000676
:103550000800000000000000000000000000000063
:1035600000000000003C4278444242FC00000000A1
:1035700000030202021A26424242261A00000000FC
:10358000000000000038440202024438000000003D
:103590000060404040784442424264D8000000004D
:1035A00000000000003C427E0202423C000000009D
:1035B00000F08808087E08080808083E000000009F
:1035C00000000000007C22221C023C42423C000021
:1035D00000030202023A4642424242E70000000073
:1035E000000C0C00000E08080808083E000000004F
:1035F000003030000038202020202020221E000033
:10360000000302020272120A161222770000000062
:10361000000E0808080808080808083E0000000016
:1036200000000000007F9292929292B7000000008A
:1036300000000000003B4642424242E7000000001A
:1036400000000000003C42424242423C00000000B8
:1036500000000000001B26424242221E020700001A
:1036600000000000007844424242447840E00000FC
:103670000000000000774C040404041F0000000058
:1036800000000000007C42023C40423E000000007E
:1036900000000008083E0808080808300000000084
:1036A0000000000000634242424262DC0000000071
:1036B0000000000000E74224241408080000000075
:1036C0000000000000EB494955552222000000008F
:1036D00000000000007624181818246E0000000076
:1036E0000000000000E74224241418080807000026
:1036F00000000000007E22100808447E000000C088
:10370000202020202010202020202020C000101069
:1037100010101010101010101010101010100006C3
:1037200008080808081008080808080806000C32ED
:10373000C2000000000000000000000000000000C7
:103740000000000000000000000000000000000079
:103750000000000000000000000000000000000069
:103760000000000000000000000000000000000059
:103770000000000000000000000000000000000049
:103780000000000000000000C001C001C001C00135
:10379000C001C001C0018000800080008000800066
:1037A0008000800000000000000000008001C003D5
:1037B000C0038001000000000000000000000000C5
:1037C00000000000E01CE01CF01E700E380718031B
:1037D000080184000000000000000000000000005C
:1037E00000000000000000000000000000000000D9
:1037F00000000000000000000000000000000000C9
:103800000000000000000000000020102010201028
:1038100020102010FE7FFE7F1008100810081008EE
:10382000100810081008FE7FFE7F08040804080432
:103830000804080400000000000000000000000070
:1038400000000000000000010001C00760191031F5
:1038500018311839183938017001E001C0038007A8
:10386000000F001D003900311C311C310C310C11CE
:10387000180DE00700010001000100000000000039
:10388000000000000000000000001C103618630853
:10389000630C63046304630263026301361D9C3797
:1038A0008022806340634063206320633063102282
:1038B0001836081C00000000000000000000000096
:1038C00000000000000000000000F00098018C01E2
:1038D0008C018C018C018C00CC007800183E1C08F7
:1038E0003608320863046304C304C30383430643F6
:1038F0008E26781C00000000000000000000000080
:10390000000000001C003C003C00300030001000B3
:103910000C00060000000000000000000000000095
:103920000000000000000000000000000000000097
:103930000000000000000000000000000000000087
:10394000000000000040002000100008000C0004EF
:103950000006000300030003800180018001800154
:103960008001800180018001000300030003000644
:103970000006000C000800100020004000000000BD
:1039800000000000020004000800100030002000C9
:103990006000C000C000C000800180018001800183
:1039A0008001800180018001C000C000C000600073
:1039B0006000300010000800040002000000000059
:1039C00000000000000000000000000000000001F6
:1039D0008003800300011C713C79783DC007000121
:1039E000C007783D3C791C71000180038003800191
:1039F00000000000000000000000000000000000C7
:103A000000000000000000000000000000000000B6
:103A10000001000100010001000100010001FC7F24
:103A2000000100010001000100010001000100008F
:103A30000000000000000000000000000000000086
:103A40000000000000000000000000000000000076
:103A50000000000000000000000000000000000066
:103A600000000000000000000000000000001C003A
:103A70003C003C003000300010000C00060000004C
:103A80000000000000000000000000000000000036
:103A90000000000000000000000000000000FE7FA9
:103AA0000000000000000000000000000000000016
:103AB0000000000000000000000000000000000006
:103AC00000000000000000000000000000000000F6
:103AD00000000000000000000000000000000000E6
:103AE00000000000000000000000000018003C0082
:103AF0003C00180000000000000000000000000072
:103B0000000000000040006000200030001000189D
:103B10000008000C00040006000200030001800100
:103B20008000C0004000600020003000100018003D
:103B300008000C0004000600020000000000000065
:103B400000000000000000000000C007600C3018FA
:103B50001830183018200C600C600C600C600C6081
:103B60000C600C600C600C60182018301830301895
:103B7000600CC00700000000000000000000000012
:103B80000000000000000000000000018001F801BA
:103B9000800180018001800180018001800180011D
:103BA000800180018001800180018001800180010D
:103BB000C003F81F0000000000000000000000002B
:103BC00000000000000000000000E007101C0818C2
:103BD000043004300C300C300030001800080004B1
:103BE0000002000180004000202010200820043046
:103BF000FC1FFC1F0000000000000000000000008F
:103C000000000000000000000000E003180E0C0C93
:103C10000C180C180C180018000C0006C003000E3D
:103C200000180010003000300C300C300C100C1854
:103C3000180CE0030000000000000000000000007D
:103C400000000000000000000000000C000E000E4C
:103C5000000F800E800E400E600E200E100E100E13
:103C6000080E040E040EFE7F000E000E000E000E65
:103C7000000E000EC07F00000000000000000000E9
:103C800000000000000000000000F03FF03F1000C6
:103C90001000100008000800C807280C18180810A9
:103CA00000300030003000300C300C3004180418A4
:103CB000080CF003000000000000000000000000FD
:103CC00000000000000000000000800FC010203045
:103CD00010301800180008000C008C0F6C183C30D5
:103CE0001C600C600C600C600C6018601820303098
:103CF0006018C00700000000000000000000000085
:103D000000000000000000000000F83FF83F1C1019
:103D10000C08040804040004000200020001000171
:103D20000001800080008000C000C000C000C00012
:103D3000C000C00000000000000000000000000003
:103D400000000000000000000000E007300C181820
:103D50000C300C300C301C3038187008E007B007FD
:103D6000180E0C1C063806300630063006300C18CB
:103D7000180CE0030000000000000000000000003C
:103D800000000000000000000000E00318040C0820
:103D90000C180610063006300630063006380C3C8B
:103DA0001836F03100300018001800180C0C0C0602
:103DB0000C03F00100000000000000000000000003
:103DC00000000000000000000000000000000000F3
:103DD00000000000000000008001C003C00380015B
:103DE0000000000000000000000000008001C0038F
:103DF000C00380010000000000000000000000007F
:103E000000000000000000000000000000000000B2
:103E10000000000000000000C000C0000000000022
:103E20000000000000000000000000000000000092
:103E3000C000C00080008000400040000000000082
:103E40000000000000000000002000100008000436
:103E5000000600038001C0006000300018000C0064
:103E6000180030006000C00080010003000600045C
:103E7000000800100020000000000000000000000A
:103E80000000000000000000000000000000000032
:103E90000000000000000000FE7F000000000000A5
:103EA00000000000FE7F0000000000000000000095
:103EB0000000000000000000000000000000000002
:103EC00000000000000000000400080010002000B6
:103ED0006000C000800100030006000C00180030E4
:103EE0000018000C000600038001C00060002000E4
:103EF00010000800040000000000000000000000A6
:103F00000000000000000000C00730180830086002
:103F10000C601C601C601C600030001C000600016E
:103F20008000800080008000000000008001C0034D
:103F3000C00380010000000000000000000000003D
:103F400000000000000000000000C00760181030F2
:103F500018200C2F8C4D864CC64CC64C664C6644C3
:103F60006644662666266615CC1C0C400820183070
:103F70003018C00700000000000000000000000032
:103F800000000000000000000001C001C001C001ED
:103F900040016003200320032003300610061006B2
:103FA0001006F80F080C080C080C0C0C0418041868
:103FB00006181F7C00000000000000000000000048
:103FC00000000000000000000000FE07181C183868
:103FD00018301830183018301818180CF80718183E
:103FE00018301820186018601860186018601830B1
:103FF0001818FE0F00000000000000000000000084
:1040000000000000000000000000C02760381030F1
:1040100018200C400C4004000600060006000600B4
:1040200006000600060006000C400C400C2018306C
:104030003018C00700000000000000000000000071
:1040400000000000000000000000FE03180E181819
:104050001830183018301860186018601860186030
:104060001860186018601860183018301810181888
:10407000180EFE0300000000000000000000000019
:1040800000000000000000000000FE3F1830182073
:1040900018601840180018081808180CF80F180CA9
:1040A00018081808180018001800184018401820A0
:1040B0001830FE3F0000000000000000000000007B
:1040C00000000000000000000000FE7F1870184093
:1040D00018C018801800181018101818F81F181891
:1040E00018101810180018001800180018001800F0
:1040F00018007E000000000000000000000000002A
:1041000000000000000000000000C013701C101030
:1041100018100C200C200400060006000600060003
:10412000060006FC063006300C300C301830183013
:104130003008C00700000000000000000000000080
:10414000000000000000000000003F7E0C180C186A
:104150000C180C180C180C180C180C180C18FC1F48
:104160000C180C180C180C180C180C180C180C182F
:104170000C183F7E0000000000000000000000005E
:1041800000000000000000000000F81F8001800116
:104190008001800180018001800180018001800117
:1041A0008001800180018001800180018001800107
:1041B0008001F81F00000000000000000000000067
:1041C00000000000000000000000E07F0006000684
:1041D00000060006000600060006000600060006AF
:1041E000000600060006000600060006000600069F
:1041F0000006000600060E060E038E01FC000000FD
:10420000000000000000000000007E7C1818180864
:10421000180418061802180198019801D801B8036B
:10422000380318071806180E180C181C1818183020
:1042300018307EFC000000000000000000000000BC
:10424000000000000000000000007E0018001800C0
:10425000180018001800180018001800180018009E
:1042600018001800180018001800184018401820EE
:104270001830FE3F000000000000000000000000B9
:10428000000000000000000000001FF81C381C386F
:104290001C381C3C34343434343434367432643294
:1042A000643264326431C431C431C431C430C43086
:1042B00084309FFC000000000000000000000000AF
:1042C000000000000000000000001F7C1C103C10DB
:1042D0003410341074106410E410C410C41184112C
:1042E0008413041304170416041E041C041C041C69
:1042F00004181F180000000000000000000000006B
:1043000000000000000000000000C003300C18187E
:1043100008100C300C30066006600660066006600F
:1043200006600660066006600C200C300810181845
:10433000300CC0030000000000000000000000007E
:1043400000000000000000000000FE0F18181830E8
:104350001860186018601860186018301818F80F86
:10436000180018001800180018001800180018008D
:1043700018007E00000000000000000000000000A7
:1043800000000000000000000000C003300C1818FE
:104390000C100C300C20066006600660066006609B
:1043A0000660066006600660E4612C331C32181655
:1043B000300EC007004C007C0038000000000000F8
:1043C00000000000000000000000FE07181C183864
:1043D00018301830183018301818180CF8079803CF
:1043E0001803180718061806180E180C180C181CB5
:1043F00018187E7800000000000000000000000097
:1044000000000000000000000000E02730381830F5
:104410000C200C200C000C0018007800E003800F2A
:10442000001E0038007000600460046008601830EE
:104430003818C80F00000000000000000000000055
:1044400000000000000000000000FC3F8C2184619F
:1044500082418241800180018001800180018001D0
:104460008001800180018001800180018001800144
:104470008001E007000000000000000000000000D4
:10448000000000000000000000003F7C0C100C1039
:104490000C100C100C100C100C100C100C100C103C
:1044A0000C100C100C100C100C100C100C10080838
:1044B0003804E003000000000000000000000000DD
:1044C000000000000000000000003EF81820182046
:1044D000182030103010301030106008600860086C
:1044E000E00CC004C004C004800380038003800388
:1044F00000010001000000000000000000000000BA
:1045000000000000000000000000DFF3866186214B
:1045100086218C210C218C238C138C138C134C132F
:1045200058125816580E380E380E380E300C10042B
:104530001004100400000000000000000000000053
:10454000000000000000000000007E3E180838084F
:104550003004300470026002E001C001C00180013B
:1045600080034003400720062006100C100C08189A
:1045700008183E7C00000000000000000000000061
:10458000000000000000000000007E7C1C101810DD
:1045900018083008300C700460046002C002C002C9
:1045A000C0018001800180018001800180018001C3
:1045B0008001E00700000000000000000000000093
:1045C00000000000000000000000F83F1818081864
:1045D000040C040E00060007000380038001C001E4
:1045E000C000E000600070003000382018201C106F
:1045F0000C18FE1F0000000000000000000000007A
:1046000000000000C03F400040004000400040006B
:10461000400040004000400040004000400040009A
:10462000400040004000400040004000400040008A
:104630004000400040004000C03F0000000000007B
:104640000000000000000000080018001800100022
:1046500030002000600060004000C0008000800149
:104660008001000100030002000600060004000CA7
:1046700000080018001800100030002000000000A2
:1046800000000000FC030002000200020002000221
:10469000000200020002000200020002000200020A
:1046A00000020002000200020002000200020002FA
:1046B0000002000200020002FC03000000000000F3
:1046C000000000008007C006200810100000000055
:1046D00000000000000000000000000000000000DA
:1046E00000000000000000000000000000000000CA
:1046F00000000000000000000000000000000000BA
:1047000000000000000000000000000000000000A9
:104710000000000000000000000000000000000099
:104720000000000000000000000000000000000089
:10473000000000000000000000000000FFFF00007B
:10474000000000007800C000000100000000000030
:104750000000000000000000000000000000000059
:104760000000000000000000000000000000000049
:104770000000000000000000000000000000000039
:104780000000000000000000000000000000000029
:104790000000000000000000F00318060C0C0C0CD8
:1047A000000C800F700C1C0C0C0C060C060C064C3C
:1047B0000C4FF8380000000000000000000000006E
:1047C000000000000000000010001E00180018008B
:1047D0001800180018001800180FD8183830386062
:1047E0001860186018601860186018601820383059
:1047F0007818C8070000000000000000000000005A
:1048000000000000000000000000000000000000A8
:104810000000000000000000C007700C18181818F5
:104820000C180C000C000C000C000C2018201810A8
:104830003008C00700000000000000000000000079
:1048400000000000000000000010001E001800180A
:104850000018001800180018E01B301C1818181851
:104860000C180C180C180C180C180C180818181C1C
:10487000307AE009000000000000000000000000A5
:104880000000000000000000000000000000000028
:104890000000000000000000C007300C18180810CD
:1048A0000C300C30FC3F0C000C000C0018201810D1
:1048B0007018C007000000000000000000000000A9
:1048C00000000000000000000000003E80C380C027
:1048D000C0C0C000C000C000FC1FC000C000C000BD
:1048E000C000C000C000C000C000C000C000C000C8
:1048F000C000F80F000000000000000000000000F1
:1049000000000000000000000000000000000000A7
:104910000000000000000000C077306C101818186C
:10492000181818181018300CF00718001800F00F9D
:10493000F03F08700C600C600C603838E00F00002D
:10494000000000000000000010001E001800180009
:104950001800180018001800980FD81838301830B0
:104960001830183018301830183018301830183007
:1049700018307EFC00000000000000000000000075
:10498000000000000000000000008003800380039E
:104990000000000000000001F8018001800180019A
:1049A00080018001800180018001800180018001FF
:1049B0008001F81F0000000000000000000000005F
:1049C000000000000000000000000038003800383F
:1049D0000000000000000010801F001800180018E0
:1049E0000018001800180018001800180018001807
:1049F0000018001800180018180C1806F003000022
:104A0000000000000000000010001E001800180048
:104A10001800180018001800183E180C1806180383
:104A200018019801D801380318071806180C181C2B
:104A300018187E7C0000000000000000000000004C
:104A400000000000000000000001F801800180016A
:104A5000800180018001800180018001800180014E
:104A6000800180018001800180018001800180013E
:104A70008001F81F0000000000000000000000009E
:104A80000000000000000000000000000000000026
:104A90000000000000000800EE1C9C338C318C31BB
:104AA0008C318C318C318C318C318C318C318C311E
:104AB0008C31DE7B000000000000000000000000E0
:104AC00000000000000000000000000000000000E6
:104AD00000000000000010001E0FD81838301830F9
:104AE0001830183018301830183018301830183086
:104AF00018307EFC000000000000000000000000F4
:104B000000000000000000000000000000000000A5
:104B10000000000000000000C007701C10301830BA
:104B20000C600C600C600C600C600C60183018306D
:104B30003018C00700000000000000000000000066
:104B40000000000000000000000000000000000065
:104B500000000000000010009E0F58183830182088
:104B600018601860186018601860186018303830C5
:104B70007818980718001800180018007E00000028
:104B80000000000000000000000000000000000025
:104B90000000000000000000C023303C183818302E
:104BA0000C300C300C300C300C300C300830183815
:104BB000303CE033003000300030003000FC0000BA
:104BC00000000000000000000000000000000000E5
:104BD00000000000000060007E3C60666061E00054
:104BE000E000600060006000600060006000600045
:104BF0006000FE0700000000000000000000000050
:104C000000000000000000000000000000000000A4
:104C10000000000000000000E027303818301820A5
:104C200018007000E003800F001C043004300C30CA
:104C30001C18EC0F00000000000000000000000045
:104C400000000000000000000000000000008000E4
:104C500080008000C000E000FC1FC000C000C00059
:104C6000C000C000C000C000C000C000C020C02004
:104C70008011000F00000000000000000000000094
:104C80000000000000000000000000000000000024
:104C900000000000000010201E3C183018301830B2
:104CA00018301830183018301830183018301838BC
:104CB00030F4E013000000000000000000000000DD
:104CC00000000000000000000000000000000000E4
:104CD00000000000000000007E3C1818180838088A
:104CE00030043004700260026002E001C001C001C3
:104CF000C000800000000000000000000000000074
:104D000000000000000000000000000000000000A3
:104D10000000000000000000DFF78E630C238C23EE
:104D20008C239813981358165816700E700E700E28
:104D3000200420040000000000000000000000002B
:104D40000000000000000000000000000000000063
:104D50000000000000000000FC3E70087004E00449
:104D6000C002C0018003800340076006200C100CC5
:104D700018183E7E00000000000000000000000047
:104D80000000000000000000000000000000000023
:104D900000000000000000007E7C18181808300891
:104DA0003008300460046004C002C002C002800108
:104DB000800180018000800080004C003C000000E9
:104DC00000000000000000000000000000000000E3
:104DD0000000000000000000FC1F0C0C040E040684
:104DE000000380038001C000E000702030203830D4
:104DF0001C18FC1F00000000000000000000000064
:104E0000000000000030000800040004000400045A
:104E100000040004000400040004000400028001F7
:104E20000002000400040004000400040004000464
:104E30000004000400040004000800300000000129
:104E4000000100010001000100010001000100015A
:104E5000000100010001000100010001000100014A
:104E6000000100010001000100010001000100013A
:104E7000000100010001000100010001000100002B
:104E8000000000000C001000200020002000200086
:104E90002000200020002000200020004000800191
:104EA00040002000200020002000200020002000E2
:104EB000200020002000200010000C000000000056
:104EC0003800C400864002610022001C000000007F
:104ED00000000000000000000000000000000000D2
:104EE00000000000000000000000000000000000C2
:104EF0000000000000000000000000000000D6D00C
:104F00008000800080008000FC1F841084108410CA
:104F100084108410FC1F84108000800080008000BA
:104F2000BEB0F80F0808F80F0808F80F8000FF7FE0
:104F30000000F80F08080808F80F80008410A2206D
:104F40004000D4B00000FE3F0220F22702200220E1
:104F5000FA2F222122212221122912290A2E02208F
:104F6000FE3F0220B5E7800080008000FC1F841017
:104F700084108410FC1F841084108410FC1F845043
:104F800080408040007FD7D30000FE1F000800044F
:104F9000000280018000FF7F800080008000800090
:104FA00080008000A0004000D6D00000000000007B
:104FB000001800000800000800000800080818F8A1
:104FC000FF1F1808181808181808181808181808C3
:104FD00018180818F8FF1F08080800080000080043
:104FE0000008000008000018000018000018000069
:104FF0000000BEB0000000000000400006C0FF0737
:10500000400006C0FF07400006C0FF07400802003E
:105010003000FEFF3F000000C0FF07C00002C000DC
:1050200002C00002C0FF0380100080110160100E5A
:105030003010180C1E30001C00000000D4B000001E
:1050400000000000080030F8FF1F08001008C01022
:10505000083F10080010080010080013C8FF1008CF
:1050600022100822100822100822100821120821FC
:105070001488601648C013280010080010F8FF1F9D
:10508000080010000000B5E7000000000000001854
:1050900000000800000800000800F0FF0F100804DE
:1050A000100804100804100804F0FF07100804108A
:1050B0000804100804100804F0FF07100800000896
:1050C0001000081000082000183000F01F00000039
:1050D000D7D3000000000000000004F0FF0F000024
:1050E0000600000100C000002800001800001800A1
:1050F000001830FEFF7F00180000180000180000A4
:10510000180000180000180000180000180000180F
:1051100000001F00000C00000000D6D000000000BE
:1051200000000000008000000080010000800100FD
:105130000080010000800100008001001080010C4F
:10514000F0FFFF0F30800104308001043080010443
:10515000308001043080010430800104308001047B
:1051600030800104F0FFFF0730800104308001042B
:10517000008001000080010000800100008001002B
:10518000008001000080010000800100008001001B
:10519000008001000080000000000000BEB00000A0
:1051A000000000000000000000000001800100FF7E
:1051B000FF01000380010003800100FFFF010003E5
:1051C00080010003800100FFFF01008181000000D9
:1051D00003000000031CFCFFFF3F00004000000331
:1051E000C00100FFFF010003C0000003C000000376
:1051F000C00000FFFF000001410000040100000E9C
:10520000710000078101800101076000010E1898FC
:10521000011C04E0011800C0000000000000D4B030
:10522000000000000000000000000008F0FFFF1F69
:105230003000000C3000000C3000100C30FE3F0C31
:105240003004000C3000000C3000000C3000000C6A
:105250003000C00CF0FFFF0D3030060E3030060C71
:105260003010060C3010060C3010060C3018860C6E
:105270003018860C3008060D300C860D3006EE0F07
:105280003002FC0D3001000CF000000C3000000C6E
:10529000F0FFFF0F3000000C1000000400000000C1
:1052A000B5E7000000000000000000C0000000C0E2
:1052B000010000C0000000C0000000C0000000C0ED
:1052C0000000E0FFFF0360C0000360C0000360C097
:1052D000000360C0000360C0000360C00003E0FF83
:1052E000FF0360C0000360C0000360C0000360C033
:1052F000000360C00003E0FFFF0360C0000160C066
:10530000000000C0000800C0001000C0001000C075
:10531000001800C001380080FF1F000000000000DE
:105320000000D7D3000000000000000000000000D3
:1053300000000003C0FFFF07000080070000C0005E
:10534000000060000000180000000C000080030056
:105350000080030000800100008001080080011C23
:10536000FCFFFF3F00800100008001000080010081
:105370000080010000800100008001000080010029
:105380000080010000800100008001000080010019
:105390000080010000FC010000E00000004000006F
:1053A00000000000C4530008000000203C00000082
:1053B000E8010008005400083C000020F429000027
:1053C000040200080000000000002041000000006E
:1053D00000000000000000000000000033335340D4
:1053E00000000000000000000100000010000000AC
:1053F000000000000024F4008400002000000000F1
:04000005080001AD41
:00000001FF
